{
  "contractName": "Voting",
  "abi": [
    {
      "constant": true,
      "inputs": [],
      "name": "candidateList",
      "outputs": [
        {
          "name": "",
          "type": "uint8"
        }
      ],
      "payable": false,
      "stateMutability": "view",
      "type": "function"
    },
    {
      "constant": true,
      "inputs": [],
      "name": "voteReceivedYes",
      "outputs": [
        {
          "name": "",
          "type": "uint8"
        }
      ],
      "payable": false,
      "stateMutability": "view",
      "type": "function"
    },
    {
      "constant": true,
      "inputs": [],
      "name": "voteReceivedNo",
      "outputs": [
        {
          "name": "",
          "type": "uint8"
        }
      ],
      "payable": false,
      "stateMutability": "view",
      "type": "function"
    },
    {
      "constant": true,
      "inputs": [],
      "name": "voteReceivedResult",
      "outputs": [
        {
          "name": "",
          "type": "uint8"
        }
      ],
      "payable": false,
      "stateMutability": "view",
      "type": "function"
    },
    {
      "inputs": [
        {
          "name": "yesno",
          "type": "uint8"
        }
      ],
      "payable": false,
      "stateMutability": "nonpayable",
      "type": "constructor"
    },
    {
      "constant": false,
      "inputs": [],
      "name": "voteforYes",
      "outputs": [],
      "payable": false,
      "stateMutability": "nonpayable",
      "type": "function"
    },
    {
      "constant": false,
      "inputs": [],
      "name": "voteforNo",
      "outputs": [],
      "payable": false,
      "stateMutability": "nonpayable",
      "type": "function"
    },
    {
      "constant": true,
      "inputs": [],
      "name": "voteCalculate",
      "outputs": [
        {
          "name": "",
          "type": "bool"
        }
      ],
      "payable": false,
      "stateMutability": "view",
      "type": "function"
    }
  ],
  "bytecode": "0x608060405234801561001057600080fd5b506040516020806102c88339810180604052602081101561003057600080fd5b8101908080519060200190929190505050806000806101000a81548160ff021916908360ff1602179055505061025d8061006b6000396000f3fe608060405234801561001057600080fd5b506004361061007d5760003560e01c8063af9ed2d41161005b578063af9ed2d4146100ee578063bc5ae4d3146100f8578063cdde23a61461011a578063e686117e146101245761007d565b8063498ea4411461008257806358352081146100a65780638d0a9672146100ca575b600080fd5b61008a610148565b604051808260ff1660ff16815260200191505060405180910390f35b6100ae61015a565b604051808260ff1660ff16815260200191505060405180910390f35b6100d261016d565b604051808260ff1660ff16815260200191505060405180910390f35b6100f6610180565b005b6101006101b0565b604051808215151515815260200191505060405180910390f35b6101226101ee565b005b61012c61021e565b604051808260ff1660ff16815260200191505060405180910390f35b6000809054906101000a900460ff1681565b600060019054906101000a900460ff1681565b600060029054906101000a900460ff1681565b6001600060028282829054906101000a900460ff160192506101000a81548160ff021916908360ff160217905550565b60008060029054906101000a900460ff1660ff16600060019054906101000a900460ff1660ff1611156101e657600190506101eb565b600090505b90565b6001600060018282829054906101000a900460ff160192506101000a81548160ff021916908360ff160217905550565b600060039054906101000a900460ff168156fea165627a7a7230582070ee3452b93a58aab9b9c02cf0d4826c7fdc1481291a3a3e1f8870fdc17b06220029",
  "source": "pragma solidity ^0.5.0;\n\ncontract Voting {\n    // construct to initialize yes, no\n    // vote for yes, no\n    // get count of votes for each select \n    \n    uint8 public candidateList;\n    uint8 public voteReceivedYes;\n    uint8 public voteReceivedNo;\n    uint8 public voteReceivedResult;\n    \n    \n    constructor(uint8 yesno) public {\n        candidateList = yesno;\n    }\n    \n    function voteforYes() public {\n        voteReceivedYes += 1;\n    }\n    \n    function voteforNo() public {\n        voteReceivedNo += 1;\n    }\n    \n\n    function voteCalculate() public view returns(bool){\n        if (voteReceivedYes > voteReceivedNo){\n            return true;\n        } \n        else\n            return false;\n    }\n    \n    // // check whether vote is invalid\n    // function validCandidate(uint8 candidate) view public returns(bool){\n    //     for(uint i=0; i < candidateList.length; i++){\n    //         if (candidateList[i]=candidate){\n    //             return true;\n    //         }\n    //     }\n    //     return false;\n    // }\n}\n",
  "sourcePath": "/Users/James/Desktop/vote/contracts/Voting.sol",
  "compiler": {
    "name": "solc",
    "version": "0.5.8+commit.23d335f2.Emscripten.clang"
  },
  "schemaVersion": "3.0.11",
  "updatedAt": "2019-08-01T17:39:19.711Z",
  "devdoc": {
    "methods": {}
  },
  "userdoc": {
    "methods": {}
  }
}